{"abi":[{"type":"constructor","inputs":[{"name":"initialOwner","type":"address","internalType":"address"},{"name":"_vortexDAO","type":"address","internalType":"address"}],"stateMutability":"nonpayable"},{"type":"receive","stateMutability":"payable"},{"type":"function","name":"deposit","inputs":[],"outputs":[],"stateMutability":"payable"},{"type":"function","name":"distribute","inputs":[{"name":"recipient","type":"address","internalType":"address"},{"name":"amount","type":"uint256","internalType":"uint256"},{"name":"resonanceScore","type":"uint256","internalType":"uint256"}],"outputs":[],"stateMutability":"nonpayable"},{"type":"function","name":"owner","inputs":[],"outputs":[{"name":"","type":"address","internalType":"address"}],"stateMutability":"view"},{"type":"function","name":"renounceOwnership","inputs":[],"outputs":[],"stateMutability":"nonpayable"},{"type":"function","name":"transferOwnership","inputs":[{"name":"newOwner","type":"address","internalType":"address"}],"outputs":[],"stateMutability":"nonpayable"},{"type":"function","name":"vortexDAO","inputs":[],"outputs":[{"name":"","type":"address","internalType":"contract VortexDAO"}],"stateMutability":"view"},{"type":"function","name":"withdraw","inputs":[{"name":"amount","type":"uint256","internalType":"uint256"},{"name":"resonanceScore","type":"uint256","internalType":"uint256"}],"outputs":[],"stateMutability":"nonpayable"},{"type":"event","name":"OwnershipTransferred","inputs":[{"name":"previousOwner","type":"address","indexed":true,"internalType":"address"},{"name":"newOwner","type":"address","indexed":true,"internalType":"address"}],"anonymous":false},{"type":"error","name":"OwnableInvalidOwner","inputs":[{"name":"owner","type":"address","internalType":"address"}]},{"type":"error","name":"OwnableUnauthorizedAccount","inputs":[{"name":"account","type":"address","internalType":"address"}]}],"bytecode":{"object":"0x608060405234801561000f575f80fd5b50604051610ad9380380610ad983398181016040528101906100319190610218565b815f73ffffffffffffffffffffffffffffffffffffffff168173ffffffffffffffffffffffffffffffffffffffff16036100a2575f6040517f1e4fbdf70000000000000000000000000000000000000000000000000000000081526004016100999190610265565b60405180910390fd5b6100b1816100f960201b60201c565b508060015f6101000a81548173ffffffffffffffffffffffffffffffffffffffff021916908373ffffffffffffffffffffffffffffffffffffffff160217905550505061027e565b5f805f9054906101000a900473ffffffffffffffffffffffffffffffffffffffff169050815f806101000a81548173ffffffffffffffffffffffffffffffffffffffff021916908373ffffffffffffffffffffffffffffffffffffffff1602179055508173ffffffffffffffffffffffffffffffffffffffff168173ffffffffffffffffffffffffffffffffffffffff167f8be0079c531659141344cd1fd0a4f28419497f9722a3daafe3b4186f6b6457e060405160405180910390a35050565b5f80fd5b5f73ffffffffffffffffffffffffffffffffffffffff82169050919050565b5f6101e7826101be565b9050919050565b6101f7816101dd565b8114610201575f80fd5b50565b5f81519050610212816101ee565b92915050565b5f806040838503121561022e5761022d6101ba565b5b5f61023b85828601610204565b925050602061024c85828601610204565b9150509250929050565b61025f816101dd565b82525050565b5f6020820190506102785f830184610256565b92915050565b61084e8061028b5f395ff3fe608060405260043610610073575f3560e01c8063bacad6801161004d578063bacad680146100e6578063d0e30db014610110578063e2c92a521461011a578063f2fde38b146101425761007a565b8063441a3e701461007e578063715018a6146100a65780638da5cb5b146100bc5761007a565b3661007a57005b5f80fd5b348015610089575f80fd5b506100a4600480360381019061009f9190610589565b61016a565b005b3480156100b1575f80fd5b506100ba610247565b005b3480156100c7575f80fd5b506100d061025a565b6040516100dd9190610606565b60405180910390f35b3480156100f1575f80fd5b506100fa610281565b604051610107919061067a565b60405180910390f35b6101186102a6565b005b348015610125575f80fd5b50610140600480360381019061013b91906106bd565b6102a8565b005b34801561014d575f80fd5b506101686004803603810190610163919061070d565b61037f565b005b610172610403565b814710156101b5576040517f08c379a00000000000000000000000000000000000000000000000000000000081526004016101ac90610792565b60405180910390fd5b604281116101f8576040517f08c379a00000000000000000000000000000000000000000000000000000000081526004016101ef906107fa565b60405180910390fd5b61020061025a565b73ffffffffffffffffffffffffffffffffffffffff166108fc8390811502906040515f60405180830381858888f19350505050158015610242573d5f803e3d5ffd5b505050565b61024f610403565b6102585f61048a565b565b5f805f9054906101000a900473ffffffffffffffffffffffffffffffffffffffff16905090565b60015f9054906101000a900473ffffffffffffffffffffffffffffffffffffffff1681565b565b6102b0610403565b814710156102f3576040517f08c379a00000000000000000000000000000000000000000000000000000000081526004016102ea90610792565b60405180910390fd5b60428111610336576040517f08c379a000000000000000000000000000000000000000000000000000000000815260040161032d906107fa565b60405180910390fd5b8273ffffffffffffffffffffffffffffffffffffffff166108fc8390811502906040515f60405180830381858888f19350505050158015610379573d5f803e3d5ffd5b50505050565b610387610403565b5f73ffffffffffffffffffffffffffffffffffffffff168173ffffffffffffffffffffffffffffffffffffffff16036103f7575f6040517f1e4fbdf70000000000000000000000000000000000000000000000000000000081526004016103ee9190610606565b60405180910390fd5b6104008161048a565b50565b61040b61054b565b73ffffffffffffffffffffffffffffffffffffffff1661042961025a565b73ffffffffffffffffffffffffffffffffffffffff16146104885761044c61054b565b6040517f118cdaa700000000000000000000000000000000000000000000000000000000815260040161047f9190610606565b60405180910390fd5b565b5f805f9054906101000a900473ffffffffffffffffffffffffffffffffffffffff169050815f806101000a81548173ffffffffffffffffffffffffffffffffffffffff021916908373ffffffffffffffffffffffffffffffffffffffff1602179055508173ffffffffffffffffffffffffffffffffffffffff168173ffffffffffffffffffffffffffffffffffffffff167f8be0079c531659141344cd1fd0a4f28419497f9722a3daafe3b4186f6b6457e060405160405180910390a35050565b5f33905090565b5f80fd5b5f819050919050565b61056881610556565b8114610572575f80fd5b50565b5f813590506105838161055f565b92915050565b5f806040838503121561059f5761059e610552565b5b5f6105ac85828601610575565b92505060206105bd85828601610575565b9150509250929050565b5f73ffffffffffffffffffffffffffffffffffffffff82169050919050565b5f6105f0826105c7565b9050919050565b610600816105e6565b82525050565b5f6020820190506106195f8301846105f7565b92915050565b5f819050919050565b5f61064261063d610638846105c7565b61061f565b6105c7565b9050919050565b5f61065382610628565b9050919050565b5f61066482610649565b9050919050565b6106748161065a565b82525050565b5f60208201905061068d5f83018461066b565b92915050565b61069c816105e6565b81146106a6575f80fd5b50565b5f813590506106b781610693565b92915050565b5f805f606084860312156106d4576106d3610552565b5b5f6106e1868287016106a9565b93505060206106f286828701610575565b925050604061070386828701610575565b9150509250925092565b5f6020828403121561072257610721610552565b5b5f61072f848285016106a9565b91505092915050565b5f82825260208201905092915050565b7f496e73756666696369656e742062616c616e63650000000000000000000000005f82015250565b5f61077c601483610738565b915061078782610748565b602082019050919050565b5f6020820190508181035f8301526107a981610770565b9050919050565b7f5265736f6e616e63652073636f7265206d757374206265203e363600000000005f82015250565b5f6107e4601b83610738565b91506107ef826107b0565b602082019050919050565b5f6020820190508181035f830152610811816107d8565b905091905056fea26469706673582212203bdef1dc7c7f83f84be5f6cdce36d8dd3a55997f0a886ac77551ebdfe39151bd64736f6c63430008140033","linkReferences":{}},"methodIdentifiers":{"deposit()":"d0e30db0","distribute(address,uint256,uint256)":"e2c92a52","owner()":"8da5cb5b","renounceOwnership()":"715018a6","transferOwnership(address)":"f2fde38b","vortexDAO()":"bacad680","withdraw(uint256,uint256)":"441a3e70"},"id":22}