{"abi":[{"type":"constructor","inputs":[{"name":"initialOwner","type":"address","internalType":"address"},{"name":"_vortexDAO","type":"address","internalType":"address"}],"stateMutability":"nonpayable"},{"type":"receive","stateMutability":"payable"},{"type":"function","name":"deposit","inputs":[],"outputs":[],"stateMutability":"payable"},{"type":"function","name":"owner","inputs":[],"outputs":[{"name":"","type":"address","internalType":"address"}],"stateMutability":"view"},{"type":"function","name":"renounceOwnership","inputs":[],"outputs":[],"stateMutability":"nonpayable"},{"type":"function","name":"transferOwnership","inputs":[{"name":"newOwner","type":"address","internalType":"address"}],"outputs":[],"stateMutability":"nonpayable"},{"type":"function","name":"vortexDAO","inputs":[],"outputs":[{"name":"","type":"address","internalType":"contract VortexDAO"}],"stateMutability":"view"},{"type":"function","name":"withdraw","inputs":[{"name":"amount","type":"uint256","internalType":"uint256"},{"name":"resonanceScore","type":"uint256","internalType":"uint256"}],"outputs":[],"stateMutability":"nonpayable"},{"type":"event","name":"OwnershipTransferred","inputs":[{"name":"previousOwner","type":"address","indexed":true,"internalType":"address"},{"name":"newOwner","type":"address","indexed":true,"internalType":"address"}],"anonymous":false},{"type":"error","name":"OwnableInvalidOwner","inputs":[{"name":"owner","type":"address","internalType":"address"}]},{"type":"error","name":"OwnableUnauthorizedAccount","inputs":[{"name":"account","type":"address","internalType":"address"}]}],"bytecode":{"object":"0x608060405234801561000f575f80fd5b5060405161096f38038061096f83398181016040528101906100319190610218565b815f73ffffffffffffffffffffffffffffffffffffffff168173ffffffffffffffffffffffffffffffffffffffff16036100a2575f6040517f1e4fbdf70000000000000000000000000000000000000000000000000000000081526004016100999190610265565b60405180910390fd5b6100b1816100f960201b60201c565b508060015f6101000a81548173ffffffffffffffffffffffffffffffffffffffff021916908373ffffffffffffffffffffffffffffffffffffffff160217905550505061027e565b5f805f9054906101000a900473ffffffffffffffffffffffffffffffffffffffff169050815f806101000a81548173ffffffffffffffffffffffffffffffffffffffff021916908373ffffffffffffffffffffffffffffffffffffffff1602179055508173ffffffffffffffffffffffffffffffffffffffff168173ffffffffffffffffffffffffffffffffffffffff167f8be0079c531659141344cd1fd0a4f28419497f9722a3daafe3b4186f6b6457e060405160405180910390a35050565b5f80fd5b5f73ffffffffffffffffffffffffffffffffffffffff82169050919050565b5f6101e7826101be565b9050919050565b6101f7816101dd565b8114610201575f80fd5b50565b5f81519050610212816101ee565b92915050565b5f806040838503121561022e5761022d6101ba565b5b5f61023b85828601610204565b925050602061024c85828601610204565b9150509250929050565b61025f816101dd565b82525050565b5f6020820190506102785f830184610256565b92915050565b6106e48061028b5f395ff3fe608060405260043610610058575f3560e01c8063441a3e7014610063578063715018a61461008b5780638da5cb5b146100a1578063bacad680146100cb578063d0e30db0146100f5578063f2fde38b146100ff5761005f565b3661005f57005b5f80fd5b34801561006e575f80fd5b506100896004803603810190610084919061046f565b610127565b005b348015610096575f80fd5b5061009f610204565b005b3480156100ac575f80fd5b506100b5610217565b6040516100c291906104ec565b60405180910390f35b3480156100d6575f80fd5b506100df61023e565b6040516100ec9190610560565b60405180910390f35b6100fd610263565b005b34801561010a575f80fd5b50610125600480360381019061012091906105a3565b610265565b005b61012f6102e9565b81471015610172576040517f08c379a000000000000000000000000000000000000000000000000000000000815260040161016990610628565b60405180910390fd5b604281116101b5576040517f08c379a00000000000000000000000000000000000000000000000000000000081526004016101ac90610690565b60405180910390fd5b6101bd610217565b73ffffffffffffffffffffffffffffffffffffffff166108fc8390811502906040515f60405180830381858888f193505050501580156101ff573d5f803e3d5ffd5b505050565b61020c6102e9565b6102155f610370565b565b5f805f9054906101000a900473ffffffffffffffffffffffffffffffffffffffff16905090565b60015f9054906101000a900473ffffffffffffffffffffffffffffffffffffffff1681565b565b61026d6102e9565b5f73ffffffffffffffffffffffffffffffffffffffff168173ffffffffffffffffffffffffffffffffffffffff16036102dd575f6040517f1e4fbdf70000000000000000000000000000000000000000000000000000000081526004016102d491906104ec565b60405180910390fd5b6102e681610370565b50565b6102f1610431565b73ffffffffffffffffffffffffffffffffffffffff1661030f610217565b73ffffffffffffffffffffffffffffffffffffffff161461036e57610332610431565b6040517f118cdaa700000000000000000000000000000000000000000000000000000000815260040161036591906104ec565b60405180910390fd5b565b5f805f9054906101000a900473ffffffffffffffffffffffffffffffffffffffff169050815f806101000a81548173ffffffffffffffffffffffffffffffffffffffff021916908373ffffffffffffffffffffffffffffffffffffffff1602179055508173ffffffffffffffffffffffffffffffffffffffff168173ffffffffffffffffffffffffffffffffffffffff167f8be0079c531659141344cd1fd0a4f28419497f9722a3daafe3b4186f6b6457e060405160405180910390a35050565b5f33905090565b5f80fd5b5f819050919050565b61044e8161043c565b8114610458575f80fd5b50565b5f8135905061046981610445565b92915050565b5f806040838503121561048557610484610438565b5b5f6104928582860161045b565b92505060206104a38582860161045b565b9150509250929050565b5f73ffffffffffffffffffffffffffffffffffffffff82169050919050565b5f6104d6826104ad565b9050919050565b6104e6816104cc565b82525050565b5f6020820190506104ff5f8301846104dd565b92915050565b5f819050919050565b5f61052861052361051e846104ad565b610505565b6104ad565b9050919050565b5f6105398261050e565b9050919050565b5f61054a8261052f565b9050919050565b61055a81610540565b82525050565b5f6020820190506105735f830184610551565b92915050565b610582816104cc565b811461058c575f80fd5b50565b5f8135905061059d81610579565b92915050565b5f602082840312156105b8576105b7610438565b5b5f6105c58482850161058f565b91505092915050565b5f82825260208201905092915050565b7f496e73756666696369656e742062616c616e63650000000000000000000000005f82015250565b5f6106126014836105ce565b915061061d826105de565b602082019050919050565b5f6020820190508181035f83015261063f81610606565b9050919050565b7f5265736f6e616e63652073636f7265206d757374206265203e363600000000005f82015250565b5f61067a601b836105ce565b915061068582610646565b602082019050919050565b5f6020820190508181035f8301526106a78161066e565b905091905056fea2646970667358221220b26f8da9309ebf2a18dfd9fc17bd583aada0bef9d802aec5eaff0730eab4845a64736f6c63430008140033","linkReferences":{}},"methodIdentifiers":{"deposit()":"d0e30db0","owner()":"8da5cb5b","renounceOwnership()":"715018a6","transferOwnership(address)":"f2fde38b","vortexDAO()":"bacad680","withdraw(uint256,uint256)":"441a3e70"},"id":22}