{"abi":[{"type":"constructor","inputs":[{"name":"_vortexDAO","type":"address","internalType":"address"},{"name":"_treasuryVault","type":"address","internalType":"address payable"}],"stateMutability":"nonpayable"},{"type":"function","name":"executeQueued","inputs":[{"name":"id","type":"uint256","internalType":"uint256"}],"outputs":[],"stateMutability":"nonpayable"},{"type":"function","name":"nextId","inputs":[],"outputs":[{"name":"","type":"uint256","internalType":"uint256"}],"stateMutability":"view"},{"type":"function","name":"proposals","inputs":[{"name":"","type":"uint256","internalType":"uint256"}],"outputs":[{"name":"proposer","type":"address","internalType":"address"},{"name":"description","type":"string","internalType":"string"},{"name":"amount","type":"uint256","internalType":"uint256"},{"name":"recipient","type":"address","internalType":"address"},{"name":"score","type":"uint256","internalType":"uint256"},{"name":"queuedTime","type":"uint256","internalType":"uint256"},{"name":"executed","type":"bool","internalType":"bool"}],"stateMutability":"view"},{"type":"function","name":"propose","inputs":[{"name":"desc","type":"string","internalType":"string"},{"name":"amount","type":"uint256","internalType":"uint256"},{"name":"recipient","type":"address","internalType":"address"}],"outputs":[],"stateMutability":"nonpayable"},{"type":"function","name":"treasuryVault","inputs":[],"outputs":[{"name":"","type":"address","internalType":"contract TreasuryVault"}],"stateMutability":"view"},{"type":"function","name":"vortexDAO","inputs":[],"outputs":[{"name":"","type":"address","internalType":"contract VortexDAO"}],"stateMutability":"view"},{"type":"event","name":"ProposalCreated","inputs":[{"name":"id","type":"uint256","indexed":false,"internalType":"uint256"},{"name":"proposer","type":"address","indexed":false,"internalType":"address"},{"name":"description","type":"string","indexed":false,"internalType":"string"},{"name":"amount","type":"uint256","indexed":false,"internalType":"uint256"},{"name":"recipient","type":"address","indexed":false,"internalType":"address"},{"name":"score","type":"uint256","indexed":false,"internalType":"uint256"}],"anonymous":false},{"type":"event","name":"ProposalExecuted","inputs":[{"name":"id","type":"uint256","indexed":false,"internalType":"uint256"}],"anonymous":false}],"bytecode":{"object":"0x608060405234801562000010575f80fd5b50604051620015bf380380620015bf833981810160405281019062000036919062000164565b815f806101000a81548173ffffffffffffffffffffffffffffffffffffffff021916908373ffffffffffffffffffffffffffffffffffffffff1602179055508060015f6101000a81548173ffffffffffffffffffffffffffffffffffffffff021916908373ffffffffffffffffffffffffffffffffffffffff1602179055505050620001a9565b5f80fd5b5f73ffffffffffffffffffffffffffffffffffffffff82169050919050565b5f620000ec82620000c1565b9050919050565b620000fe81620000e0565b811462000109575f80fd5b50565b5f815190506200011c81620000f3565b92915050565b5f6200012e82620000c1565b9050919050565b620001408162000122565b81146200014b575f80fd5b50565b5f815190506200015e8162000135565b92915050565b5f80604083850312156200017d576200017c620000bd565b5b5f6200018c858286016200010c565b92505060206200019f858286016200014e565b9150509250929050565b61140880620001b75f395ff3fe608060405234801561000f575f80fd5b5060043610610060575f3560e01c8063013cf08b14610064578063158367fb1461009a5780631eb2149b146100b657806361b8ce8c146100d2578063af8b1c6f146100f0578063bacad6801461010e575b5f80fd5b61007e60048036038101906100799190610982565b61012c565b6040516100919796959493929190610a9f565b60405180910390f35b6100b460048036038101906100af9190610c69565b61023a565b005b6100d060048036038101906100cb9190610982565b61041d565b005b6100da61061c565b6040516100e79190610cd5565b60405180910390f35b6100f8610622565b6040516101059190610d49565b60405180910390f35b610116610647565b6040516101239190610d93565b60405180910390f35b6002602052805f5260405f205f91509050805f015f9054906101000a900473ffffffffffffffffffffffffffffffffffffffff169080600101805461017090610dd9565b80601f016020809104026020016040519081016040528092919081815260200182805461019c90610dd9565b80156101e75780601f106101be576101008083540402835291602001916101e7565b820191905f5260205f20905b8154815290600101906020018083116101ca57829003601f168201915b505050505090806002015490806003015f9054906101000a900473ffffffffffffffffffffffffffffffffffffffff1690806004015490806005015490806006015f9054906101000a900460ff16905087565b5f61024684844361066a565b90505f60428211610257575f610266565b617e90426102659190610e36565b5b90506040518060e001604052803373ffffffffffffffffffffffffffffffffffffffff1681526020018681526020018581526020018473ffffffffffffffffffffffffffffffffffffffff1681526020018381526020018281526020015f151581525060025f60035481526020019081526020015f205f820151815f015f6101000a81548173ffffffffffffffffffffffffffffffffffffffff021916908373ffffffffffffffffffffffffffffffffffffffff16021790555060208201518160010190816103359190610ffd565b50604082015181600201556060820151816003015f6101000a81548173ffffffffffffffffffffffffffffffffffffffff021916908373ffffffffffffffffffffffffffffffffffffffff1602179055506080820151816004015560a0820151816005015560c0820151816006015f6101000a81548160ff0219169083151502179055509050507f910d93d994b68742cb73e0dc68423edcd8986a20bcd70f6361546a63de317b6260035433878787876040516103f7969594939291906110cc565b60405180910390a160035f81548092919061041190611132565b91905055505050505050565b5f60025f8381526020019081526020015f2090505f816005015411610477576040517f08c379a000000000000000000000000000000000000000000000000000000000815260040161046e906111e9565b60405180910390fd5b80600501544210156104be576040517f08c379a00000000000000000000000000000000000000000000000000000000081526004016104b590611251565b60405180910390fd5b806006015f9054906101000a900460ff161561050f576040517f08c379a0000000000000000000000000000000000000000000000000000000008152600401610506906112b9565b60405180910390fd5b60015f9054906101000a900473ffffffffffffffffffffffffffffffffffffffff1673ffffffffffffffffffffffffffffffffffffffff1663e2c92a52826003015f9054906101000a900473ffffffffffffffffffffffffffffffffffffffff16836002015484600401546040518463ffffffff1660e01b8152600401610598939291906112d7565b5f604051808303815f87803b1580156105af575f80fd5b505af11580156105c1573d5f803e3d5ffd5b505050506001816006015f6101000a81548160ff0219169083151502179055507f712ae1383f79ac853f8d882153778e0260ef8f03b504e2866e0593e04d2b291f826040516106109190610cd5565b60405180910390a15050565b60035481565b60015f9054906101000a900473ffffffffffffffffffffffffffffffffffffffff1681565b5f8054906101000a900473ffffffffffffffffffffffffffffffffffffffff1681565b5f805f8054906101000a900473ffffffffffffffffffffffffffffffffffffffff1673ffffffffffffffffffffffffffffffffffffffff16638eb4a7a985856040518363ffffffff1660e01b81526004016106c692919061130c565b602060405180830381865afa1580156106e1573d5f803e3d5ffd5b505050506040513d601f19601f820116820180604052508101906107059190611347565b90505f610747866040518060400160405280600381526020017f333639000000000000000000000000000000000000000000000000000000000081525061081b565b1561075c576032816107599190610e36565b90505b61079b866040518060400160405280600381526020017f343332000000000000000000000000000000000000000000000000000000000081525061081b565b156107b0576032816107ad9190610e36565b90505b6107ef866040518060400160405280600281526020017f363600000000000000000000000000000000000000000000000000000000000081525061081b565b15610804576032816108019190610e36565b90505b80826108109190610e36565b925050509392505050565b5f808390505f839050815181511115610838575f92505050610938565b5f5b815183516108489190611372565b8111610931575f600190505f5b835181101561090957838181518110610871576108706113a5565b5b602001015160f81c60f81b7effffffffffffffffffffffffffffffffffffffffffffffffffffffffffffff19168582856108ab9190610e36565b815181106108bc576108bb6113a5565b5b602001015160f81c60f81b7effffffffffffffffffffffffffffffffffffffffffffffffffffffffffffff1916146108f6575f9150610909565b808061090190611132565b915050610855565b50801561091d576001945050505050610938565b50808061092990611132565b91505061083a565b505f925050505b92915050565b5f604051905090565b5f80fd5b5f80fd5b5f819050919050565b6109618161094f565b811461096b575f80fd5b50565b5f8135905061097c81610958565b92915050565b5f6020828403121561099757610996610947565b5b5f6109a48482850161096e565b91505092915050565b5f73ffffffffffffffffffffffffffffffffffffffff82169050919050565b5f6109d6826109ad565b9050919050565b6109e6816109cc565b82525050565b5f81519050919050565b5f82825260208201905092915050565b5f5b83811015610a23578082015181840152602081019050610a08565b5f8484015250505050565b5f601f19601f8301169050919050565b5f610a48826109ec565b610a5281856109f6565b9350610a62818560208601610a06565b610a6b81610a2e565b840191505092915050565b610a7f8161094f565b82525050565b5f8115159050919050565b610a9981610a85565b82525050565b5f60e082019050610ab25f83018a6109dd565b8181036020830152610ac48189610a3e565b9050610ad36040830188610a76565b610ae060608301876109dd565b610aed6080830186610a76565b610afa60a0830185610a76565b610b0760c0830184610a90565b98975050505050505050565b5f80fd5b5f80fd5b7f4e487b71000000000000000000000000000000000000000000000000000000005f52604160045260245ffd5b610b5182610a2e565b810181811067ffffffffffffffff82111715610b7057610b6f610b1b565b5b80604052505050565b5f610b8261093e565b9050610b8e8282610b48565b919050565b5f67ffffffffffffffff821115610bad57610bac610b1b565b5b610bb682610a2e565b9050602081019050919050565b828183375f83830152505050565b5f610be3610bde84610b93565b610b79565b905082815260208101848484011115610bff57610bfe610b17565b5b610c0a848285610bc3565b509392505050565b5f82601f830112610c2657610c25610b13565b5b8135610c36848260208601610bd1565b91505092915050565b610c48816109cc565b8114610c52575f80fd5b50565b5f81359050610c6381610c3f565b92915050565b5f805f60608486031215610c8057610c7f610947565b5b5f84013567ffffffffffffffff811115610c9d57610c9c61094b565b5b610ca986828701610c12565b9350506020610cba8682870161096e565b9250506040610ccb86828701610c55565b9150509250925092565b5f602082019050610ce85f830184610a76565b92915050565b5f819050919050565b5f610d11610d0c610d07846109ad565b610cee565b6109ad565b9050919050565b5f610d2282610cf7565b9050919050565b5f610d3382610d18565b9050919050565b610d4381610d29565b82525050565b5f602082019050610d5c5f830184610d3a565b92915050565b5f610d6c82610cf7565b9050919050565b5f610d7d82610d62565b9050919050565b610d8d81610d73565b82525050565b5f602082019050610da65f830184610d84565b92915050565b7f4e487b71000000000000000000000000000000000000000000000000000000005f52602260045260245ffd5b5f6002820490506001821680610df057607f821691505b602082108103610e0357610e02610dac565b5b50919050565b7f4e487b71000000000000000000000000000000000000000000000000000000005f52601160045260245ffd5b5f610e408261094f565b9150610e4b8361094f565b9250828201905080821115610e6357610e62610e09565b5b92915050565b5f819050815f5260205f209050919050565b5f6020601f8301049050919050565b5f82821b905092915050565b5f60088302610ec57fffffffffffffffffffffffffffffffffffffffffffffffffffffffffffffffff82610e8a565b610ecf8683610e8a565b95508019841693508086168417925050509392505050565b5f610f01610efc610ef78461094f565b610cee565b61094f565b9050919050565b5f819050919050565b610f1a83610ee7565b610f2e610f2682610f08565b848454610e96565b825550505050565b5f90565b610f42610f36565b610f4d818484610f11565b505050565b5b81811015610f7057610f655f82610f3a565b600181019050610f53565b5050565b601f821115610fb557610f8681610e69565b610f8f84610e7b565b81016020851015610f9e578190505b610fb2610faa85610e7b565b830182610f52565b50505b505050565b5f82821c905092915050565b5f610fd55f1984600802610fba565b1980831691505092915050565b5f610fed8383610fc6565b9150826002028217905092915050565b611006826109ec565b67ffffffffffffffff81111561101f5761101e610b1b565b5b6110298254610dd9565b611034828285610f74565b5f60209050601f831160018114611065575f8415611053578287015190505b61105d8582610fe2565b8655506110c4565b601f19841661107386610e69565b5f5b8281101561109a57848901518255600182019150602085019450602081019050611075565b868310156110b757848901516110b3601f891682610fc6565b8355505b6001600288020188555050505b505050505050565b5f60c0820190506110df5f830189610a76565b6110ec60208301886109dd565b81810360408301526110fe8187610a3e565b905061110d6060830186610a76565b61111a60808301856109dd565b61112760a0830184610a76565b979650505050505050565b5f61113c8261094f565b91507fffffffffffffffffffffffffffffffffffffffffffffffffffffffffffffffff820361116e5761116d610e09565b5b600182019050919050565b7f50726f706f73616c206e6f742071756575656420666f7220657865637574696f5f8201527f6e00000000000000000000000000000000000000000000000000000000000000602082015250565b5f6111d36021836109f6565b91506111de82611179565b604082019050919050565b5f6020820190508181035f830152611200816111c7565b9050919050565b7f54696d656c6f636b206e6f7420657870697265640000000000000000000000005f82015250565b5f61123b6014836109f6565b915061124682611207565b602082019050919050565b5f6020820190508181035f8301526112688161122f565b9050919050565b7f416c7265616479206578656375746564000000000000000000000000000000005f82015250565b5f6112a36010836109f6565b91506112ae8261126f565b602082019050919050565b5f6020820190508181035f8301526112d081611297565b9050919050565b5f6060820190506112ea5f8301866109dd565b6112f76020830185610a76565b6113046040830184610a76565b949350505050565b5f60408201905061131f5f830185610a76565b61132c6020830184610a76565b9392505050565b5f8151905061134181610958565b92915050565b5f6020828403121561135c5761135b610947565b5b5f61136984828501611333565b91505092915050565b5f61137c8261094f565b91506113878361094f565b925082820390508181111561139f5761139e610e09565b5b92915050565b7f4e487b71000000000000000000000000000000000000000000000000000000005f52603260045260245ffdfea2646970667358221220c3828d2847ee57f1782fd8b744d5f31d63262c136a4dac13985ff06cf98aa53964736f6c63430008140033","linkReferences":{}},"methodIdentifiers":{"executeQueued(uint256)":"1eb2149b","nextId()":"61b8ce8c","proposals(uint256)":"013cf08b","propose(string,uint256,address)":"158367fb","treasuryVault()":"af8b1c6f","vortexDAO()":"bacad680"},"id":21}