{"abi":[{"type":"constructor","inputs":[{"name":"_vortexDAO","type":"address","internalType":"address"},{"name":"_treasuryVault","type":"address","internalType":"address payable"}],"stateMutability":"nonpayable"},{"type":"function","name":"execute","inputs":[{"name":"id","type":"uint256","internalType":"uint256"}],"outputs":[],"stateMutability":"nonpayable"},{"type":"function","name":"nextId","inputs":[],"outputs":[{"name":"","type":"uint256","internalType":"uint256"}],"stateMutability":"view"},{"type":"function","name":"proposals","inputs":[{"name":"","type":"uint256","internalType":"uint256"}],"outputs":[{"name":"proposer","type":"address","internalType":"address"},{"name":"description","type":"string","internalType":"string"},{"name":"amount","type":"uint256","internalType":"uint256"},{"name":"recipient","type":"address","internalType":"address"},{"name":"score","type":"uint256","internalType":"uint256"},{"name":"executed","type":"bool","internalType":"bool"}],"stateMutability":"view"},{"type":"function","name":"propose","inputs":[{"name":"desc","type":"string","internalType":"string"},{"name":"amount","type":"uint256","internalType":"uint256"},{"name":"recipient","type":"address","internalType":"address"}],"outputs":[],"stateMutability":"nonpayable"},{"type":"function","name":"treasuryVault","inputs":[],"outputs":[{"name":"","type":"address","internalType":"contract TreasuryVault"}],"stateMutability":"view"},{"type":"function","name":"vortexDAO","inputs":[],"outputs":[{"name":"","type":"address","internalType":"contract VortexDAO"}],"stateMutability":"view"},{"type":"event","name":"ProposalCreated","inputs":[{"name":"id","type":"uint256","indexed":false,"internalType":"uint256"},{"name":"proposer","type":"address","indexed":false,"internalType":"address"},{"name":"description","type":"string","indexed":false,"internalType":"string"},{"name":"amount","type":"uint256","indexed":false,"internalType":"uint256"},{"name":"recipient","type":"address","indexed":false,"internalType":"address"},{"name":"score","type":"uint256","indexed":false,"internalType":"uint256"}],"anonymous":false},{"type":"event","name":"ProposalExecuted","inputs":[{"name":"id","type":"uint256","indexed":false,"internalType":"uint256"}],"anonymous":false}],"bytecode":{"object":"0x608060405234801562000010575f80fd5b50604051620014a5380380620014a5833981810160405281019062000036919062000164565b815f806101000a81548173ffffffffffffffffffffffffffffffffffffffff021916908373ffffffffffffffffffffffffffffffffffffffff1602179055508060015f6101000a81548173ffffffffffffffffffffffffffffffffffffffff021916908373ffffffffffffffffffffffffffffffffffffffff1602179055505050620001a9565b5f80fd5b5f73ffffffffffffffffffffffffffffffffffffffff82169050919050565b5f620000ec82620000c1565b9050919050565b620000fe81620000e0565b811462000109575f80fd5b50565b5f815190506200011c81620000f3565b92915050565b5f6200012e82620000c1565b9050919050565b620001408162000122565b81146200014b575f80fd5b50565b5f815190506200015e8162000135565b92915050565b5f80604083850312156200017d576200017c620000bd565b5b5f6200018c858286016200010c565b92505060206200019f858286016200014e565b9150509250929050565b6112ee80620001b75f395ff3fe608060405234801561000f575f80fd5b5060043610610060575f3560e01c8063013cf08b14610064578063158367fb1461009957806361b8ce8c146100b5578063af8b1c6f146100d3578063bacad680146100f1578063fe0d94c11461010f575b5f80fd5b61007e60048036038101906100799190610904565b61012b565b60405161009096959493929190610a21565b60405180910390f35b6100b360048036038101906100ae9190610bdd565b610233565b005b6100bd6103e5565b6040516100ca9190610c49565b60405180910390f35b6100db6103eb565b6040516100e89190610cbd565b60405180910390f35b6100f9610410565b6040516101069190610d07565b60405180910390f35b61012960048036038101906101249190610904565b610433565b005b6002602052805f5260405f205f91509050805f015f9054906101000a900473ffffffffffffffffffffffffffffffffffffffff169080600101805461016f90610d4d565b80601f016020809104026020016040519081016040528092919081815260200182805461019b90610d4d565b80156101e65780601f106101bd576101008083540402835291602001916101e6565b820191905f5260205f20905b8154815290600101906020018083116101c957829003601f168201915b505050505090806002015490806003015f9054906101000a900473ffffffffffffffffffffffffffffffffffffffff1690806004015490806005015f9054906101000a900460ff16905086565b5f61023f8484436105ec565b90506040518060c001604052803373ffffffffffffffffffffffffffffffffffffffff1681526020018581526020018481526020018373ffffffffffffffffffffffffffffffffffffffff1681526020018281526020015f151581525060025f60035481526020019081526020015f205f820151815f015f6101000a81548173ffffffffffffffffffffffffffffffffffffffff021916908373ffffffffffffffffffffffffffffffffffffffff16021790555060208201518160010190816103089190610f11565b50604082015181600201556060820151816003015f6101000a81548173ffffffffffffffffffffffffffffffffffffffff021916908373ffffffffffffffffffffffffffffffffffffffff1602179055506080820151816004015560a0820151816005015f6101000a81548160ff0219169083151502179055509050507f910d93d994b68742cb73e0dc68423edcd8986a20bcd70f6361546a63de317b6260035433868686866040516103c096959493929190610fe0565b60405180910390a160035f8154809291906103da90611073565b919050555050505050565b60035481565b60015f9054906101000a900473ffffffffffffffffffffffffffffffffffffffff1681565b5f8054906101000a900473ffffffffffffffffffffffffffffffffffffffff1681565b5f60025f8381526020019081526020015f209050806005015f9054906101000a900460ff1615610498576040517f08c379a000000000000000000000000000000000000000000000000000000000815260040161048f90611104565b60405180910390fd5b60428160040154116104df576040517f08c379a00000000000000000000000000000000000000000000000000000000081526004016104d69061116c565b60405180910390fd5b60015f9054906101000a900473ffffffffffffffffffffffffffffffffffffffff1673ffffffffffffffffffffffffffffffffffffffff1663e2c92a52826003015f9054906101000a900473ffffffffffffffffffffffffffffffffffffffff16836002015484600401546040518463ffffffff1660e01b81526004016105689392919061118a565b5f604051808303815f87803b15801561057f575f80fd5b505af1158015610591573d5f803e3d5ffd5b505050506001816005015f6101000a81548160ff0219169083151502179055507f712ae1383f79ac853f8d882153778e0260ef8f03b504e2866e0593e04d2b291f826040516105e09190610c49565b60405180910390a15050565b5f805f8054906101000a900473ffffffffffffffffffffffffffffffffffffffff1673ffffffffffffffffffffffffffffffffffffffff16638eb4a7a985856040518363ffffffff1660e01b81526004016106489291906111bf565b602060405180830381865afa158015610663573d5f803e3d5ffd5b505050506040513d601f19601f8201168201806040525081019061068791906111fa565b90505f6106c9866040518060400160405280600381526020017f333639000000000000000000000000000000000000000000000000000000000081525061079d565b156106de576032816106db9190611225565b90505b61071d866040518060400160405280600381526020017f343332000000000000000000000000000000000000000000000000000000000081525061079d565b156107325760328161072f9190611225565b90505b610771866040518060400160405280600281526020017f363600000000000000000000000000000000000000000000000000000000000081525061079d565b15610786576032816107839190611225565b90505b80826107929190611225565b925050509392505050565b5f808390505f8390508151815111156107ba575f925050506108ba565b5f5b815183516107ca9190611258565b81116108b3575f600190505f5b835181101561088b578381815181106107f3576107f261128b565b5b602001015160f81c60f81b7effffffffffffffffffffffffffffffffffffffffffffffffffffffffffffff191685828561082d9190611225565b8151811061083e5761083d61128b565b5b602001015160f81c60f81b7effffffffffffffffffffffffffffffffffffffffffffffffffffffffffffff191614610878575f915061088b565b808061088390611073565b9150506107d7565b50801561089f5760019450505050506108ba565b5080806108ab90611073565b9150506107bc565b505f925050505b92915050565b5f604051905090565b5f80fd5b5f80fd5b5f819050919050565b6108e3816108d1565b81146108ed575f80fd5b50565b5f813590506108fe816108da565b92915050565b5f60208284031215610919576109186108c9565b5b5f610926848285016108f0565b91505092915050565b5f73ffffffffffffffffffffffffffffffffffffffff82169050919050565b5f6109588261092f565b9050919050565b6109688161094e565b82525050565b5f81519050919050565b5f82825260208201905092915050565b5f5b838110156109a557808201518184015260208101905061098a565b5f8484015250505050565b5f601f19601f8301169050919050565b5f6109ca8261096e565b6109d48185610978565b93506109e4818560208601610988565b6109ed816109b0565b840191505092915050565b610a01816108d1565b82525050565b5f8115159050919050565b610a1b81610a07565b82525050565b5f60c082019050610a345f83018961095f565b8181036020830152610a4681886109c0565b9050610a5560408301876109f8565b610a62606083018661095f565b610a6f60808301856109f8565b610a7c60a0830184610a12565b979650505050505050565b5f80fd5b5f80fd5b7f4e487b71000000000000000000000000000000000000000000000000000000005f52604160045260245ffd5b610ac5826109b0565b810181811067ffffffffffffffff82111715610ae457610ae3610a8f565b5b80604052505050565b5f610af66108c0565b9050610b028282610abc565b919050565b5f67ffffffffffffffff821115610b2157610b20610a8f565b5b610b2a826109b0565b9050602081019050919050565b828183375f83830152505050565b5f610b57610b5284610b07565b610aed565b905082815260208101848484011115610b7357610b72610a8b565b5b610b7e848285610b37565b509392505050565b5f82601f830112610b9a57610b99610a87565b5b8135610baa848260208601610b45565b91505092915050565b610bbc8161094e565b8114610bc6575f80fd5b50565b5f81359050610bd781610bb3565b92915050565b5f805f60608486031215610bf457610bf36108c9565b5b5f84013567ffffffffffffffff811115610c1157610c106108cd565b5b610c1d86828701610b86565b9350506020610c2e868287016108f0565b9250506040610c3f86828701610bc9565b9150509250925092565b5f602082019050610c5c5f8301846109f8565b92915050565b5f819050919050565b5f610c85610c80610c7b8461092f565b610c62565b61092f565b9050919050565b5f610c9682610c6b565b9050919050565b5f610ca782610c8c565b9050919050565b610cb781610c9d565b82525050565b5f602082019050610cd05f830184610cae565b92915050565b5f610ce082610c6b565b9050919050565b5f610cf182610cd6565b9050919050565b610d0181610ce7565b82525050565b5f602082019050610d1a5f830184610cf8565b92915050565b7f4e487b71000000000000000000000000000000000000000000000000000000005f52602260045260245ffd5b5f6002820490506001821680610d6457607f821691505b602082108103610d7757610d76610d20565b5b50919050565b5f819050815f5260205f209050919050565b5f6020601f8301049050919050565b5f82821b905092915050565b5f60088302610dd97fffffffffffffffffffffffffffffffffffffffffffffffffffffffffffffffff82610d9e565b610de38683610d9e565b95508019841693508086168417925050509392505050565b5f610e15610e10610e0b846108d1565b610c62565b6108d1565b9050919050565b5f819050919050565b610e2e83610dfb565b610e42610e3a82610e1c565b848454610daa565b825550505050565b5f90565b610e56610e4a565b610e61818484610e25565b505050565b5b81811015610e8457610e795f82610e4e565b600181019050610e67565b5050565b601f821115610ec957610e9a81610d7d565b610ea384610d8f565b81016020851015610eb2578190505b610ec6610ebe85610d8f565b830182610e66565b50505b505050565b5f82821c905092915050565b5f610ee95f1984600802610ece565b1980831691505092915050565b5f610f018383610eda565b9150826002028217905092915050565b610f1a8261096e565b67ffffffffffffffff811115610f3357610f32610a8f565b5b610f3d8254610d4d565b610f48828285610e88565b5f60209050601f831160018114610f79575f8415610f67578287015190505b610f718582610ef6565b865550610fd8565b601f198416610f8786610d7d565b5f5b82811015610fae57848901518255600182019150602085019450602081019050610f89565b86831015610fcb5784890151610fc7601f891682610eda565b8355505b6001600288020188555050505b505050505050565b5f60c082019050610ff35f8301896109f8565b611000602083018861095f565b818103604083015261101281876109c0565b905061102160608301866109f8565b61102e608083018561095f565b61103b60a08301846109f8565b979650505050505050565b7f4e487b71000000000000000000000000000000000000000000000000000000005f52601160045260245ffd5b5f61107d826108d1565b91507fffffffffffffffffffffffffffffffffffffffffffffffffffffffffffffffff82036110af576110ae611046565b5b600182019050919050565b7f416c7265616479206578656375746564000000000000000000000000000000005f82015250565b5f6110ee601083610978565b91506110f9826110ba565b602082019050919050565b5f6020820190508181035f83015261111b816110e2565b9050919050565b7f53636f7265206e6f74203e3636000000000000000000000000000000000000005f82015250565b5f611156600d83610978565b915061116182611122565b602082019050919050565b5f6020820190508181035f8301526111838161114a565b9050919050565b5f60608201905061119d5f83018661095f565b6111aa60208301856109f8565b6111b760408301846109f8565b949350505050565b5f6040820190506111d25f8301856109f8565b6111df60208301846109f8565b9392505050565b5f815190506111f4816108da565b92915050565b5f6020828403121561120f5761120e6108c9565b5b5f61121c848285016111e6565b91505092915050565b5f61122f826108d1565b915061123a836108d1565b925082820190508082111561125257611251611046565b5b92915050565b5f611262826108d1565b915061126d836108d1565b925082820390508181111561128557611284611046565b5b92915050565b7f4e487b71000000000000000000000000000000000000000000000000000000005f52603260045260245ffdfea2646970667358221220219255699d40e0fd891c9fde15bb7842c8cfd7dc7720466ffaf05350d2f9c2f164736f6c63430008140033","linkReferences":{}},"methodIdentifiers":{"execute(uint256)":"fe0d94c1","nextId()":"61b8ce8c","proposals(uint256)":"013cf08b","propose(string,uint256,address)":"158367fb","treasuryVault()":"af8b1c6f","vortexDAO()":"bacad680"},"id":21}