{"abi":[{"type":"function","name":"resonanceScore","inputs":[{"name":"amount","type":"uint256","internalType":"uint256"},{"name":"blockNumber","type":"uint256","internalType":"uint256"}],"outputs":[{"name":"","type":"uint256","internalType":"uint256"}],"stateMutability":"pure"}],"bytecode":{"object":"0x608060405234801561000f575f80fd5b506102ce8061001d5f395ff3fe608060405234801561000f575f80fd5b5060043610610029575f3560e01c80638eb4a7a91461002d575b5f80fd5b61004760048036038101906100429190610175565b61005d565b60405161005491906101c2565b60405180910390f35b5f805f90505f6003856100709190610208565b03610085576003816100829190610265565b90505b5f6006856100939190610208565b036100a8576006816100a59190610265565b90505b5f6009856100b69190610208565b036100cb576009816100c89190610265565b90505b5f6003846100d99190610208565b036100ee576001816100eb9190610265565b90505b5f6006846100fc9190610208565b036101115760028161010e9190610265565b90505b5f60098461011f9190610208565b03610134576003816101319190610265565b90505b8091505092915050565b5f80fd5b5f819050919050565b61015481610142565b811461015e575f80fd5b50565b5f8135905061016f8161014b565b92915050565b5f806040838503121561018b5761018a61013e565b5b5f61019885828601610161565b92505060206101a985828601610161565b9150509250929050565b6101bc81610142565b82525050565b5f6020820190506101d55f8301846101b3565b92915050565b7f4e487b71000000000000000000000000000000000000000000000000000000005f52601260045260245ffd5b5f61021282610142565b915061021d83610142565b92508261022d5761022c6101db565b5b828206905092915050565b7f4e487b71000000000000000000000000000000000000000000000000000000005f52601160045260245ffd5b5f61026f82610142565b915061027a83610142565b925082820190508082111561029257610291610238565b5b9291505056fea26469706673582212200f3eb41373b069d3435a7a53af0ca2f019892e4563581c4949f8bcd3d44f249d64736f6c63430008140033","linkReferences":{}},"methodIdentifiers":{"resonanceScore(uint256,uint256)":"8eb4a7a9"},"id":23}